:020000040000FA
:0C08000012EEFEF095EF0AF04FEF0AF048
:0408180072EF0AF081
:10082000010E0001646F0B0E0001665DD8B05AD056
:10083000FA6AFB6A6635FA36E834FA36FC0B4E0F74
:10084000E56E080EFA22000EFB22E450F96E3DEF31
:1008500004F041EF04F045EF04F049EF04F04DEFF0
:1008600004F051EF04F055EF04F059EF04F05DEFA0
:1008700004F064EF04F06BEF04F0010E0001636F0D
:1008800037D0010E0001636F33D0010E0001636F9A
:100890002FD0060E0001636F2BD00D0E0001636F89
:1008A00027D01D0E0001636F23D04C0E0001636F33
:1008B0001FD09A0E0001636F1BD09A0E0001636F68
:1008C000020E0001646F14D09A0E0001636F050ED2
:1008D0000001646F0DD09A0E0001636F0A0E0001D3
:1008E000646F06D09A0E0001636F140E0001646FEE
:1008F0000001606B00016751800A01E139D0800E70
:100900000001675D1BE28150675D0AE364C062F02D
:1009100063C061F0612FFED7622FFAD7602FF3D743
:100920008150675D0AE264C062F063C061F0612FCC
:10093000FED7622FFAD7602FF3D71AD08150675DA8
:100940000AE264C062F063C061F0612FFED7622FDB
:10095000FAD7602FF3D78150675D0AE364C062F075
:1009600063C061F0612FFED7622FFAD7602FF3D7F3
:100970000001606B080E0001665DD8B0F4EF06F070
:10098000FA6AFB6A6635FA36E834FA36FC0B9E0FD3
:10099000E56E090EFA22000EFB22E450F96EDFEF3D
:1009A00004F0E2EF06F0E9EF06F0E9EF06F0E9EF18
:1009B00006F0E9EF06F0E9EF06F0E9EF06F007EEE2
:1009C00000F081CFEEFF81CFEEFF81CFEEFF81CF30
:1009D000EEFF81CFEEFF81CFEEFF81CFEEFF81CF23
:1009E000EEFF81CFEEFF81CFEEFF81CFEEFF81CF13
:1009F000EEFF81CFEEFF81CFEEFF81CFEEFF81CF03
:100A0000EEFF81CFEEFF81CFEEFF81CFEEFF81CFF2
:100DC000EEFF20D007EE00F081CFEEFF602FFCD7C2
:100DD00019D007EE00F081CFEEFF63C061F0612F04
:100DE000FED7602FF8D70ED007EE00F081CFEEFFD0
:100DF00064C062F063C061F0612FFED7622FFAD742
:100E0000602FF4D7120000C0E5FF01C0E5FF02C06B
:100E1000E5FF0401196B1A6B04011151600BD8A492
:100E2000DDD012C400F00050050A0CE00050060AA4
:100E30000FE00050080A01E1C3D00050090A01E1A7
:100E4000B0D0CCD013C427F4040E0401286FC3D053
:100E500014C400F0010E005CD8A0C0D0040E005CE9
:100E6000D8B0BCD00006FA6AFB6A0034FA36E8341F
:100E7000FA36FC0B840FE56E0E0EFA22000EFB22F2
:100E8000E450F96E48EF07F059EF07F06AEF07F00A
:100E9000120E016EB20E006E026A005004011C6F49
:100EA00001501D6F02501E6F120E0401196F1A6B54
:100EB00074D0120E016EC40E006E026A005004015E
:100EC0001C6F01501D6F02501E6F200E0401196F20
:100ED0001A6B63D013C400F0010E005CD8A04DD093
:100EE000040E005CD8B049D00006FA6AFB6A0034F0
:100EF000FA36E834FA36FC0B080FE56E0F0EFA22CC
:100F0000000EFB22E450F96E8AEF07F09BEF07F02A
:100F1000ACEF07F0120E016EE80E006E026A005090
:100F200004011C6F01501D6F02501E6F2C0E040136
:100F3000196F1A6B32D0130E016E140E006E026A16
:100F4000005004011C6F01501D6F02501E6F220ED5
:100F50000401196F1A6B21D0130E016E360E006E4C
:100F6000026A005004011C6F01501D6F02501E6F79
:100F70000C0E0401196F1A6B10D0120E016EE40EE4
:100F8000006E026A005004011C6F01501D6F025078
:100F90001E6F040E0401196F1A6B010E04011B6F02
:100FA0001AD013C429F40401295104E1050E0401E7
:100FB000286F11D0060E0401286FEBEC0AF00BD05D
:100FC000290E04011C6F040E1D6F010E0401196F20
:100FD0001A6B04011B6BA1EC09F002D0D2EC0AF0F1
:100FE000E4CF02F0E4CF01F0E4CF00F0120000C043
:100FF000E5FF01C0E5FF02C0E5FF03C0E5FF04C057
:10100000E5FF05C0E5FF06C0E5FF006A060E040126
:10101000285D02E36DA201D09CD0040108BF99D0E5
:1010200000C601F0090E015CD8B078D0FA6AFB6AFC
:101030000134FA36E834FA36FC0B4A0FE56E100E2E
:10104000FA22000EFB22E450F96E37EF08F03FEF72
:1010500008F047EF08F06DEF08F076EF08F07AEF50
:1010600008F07EEF08F084EF08F089EF08F0020E38
:10107000006E030E0501006F010E016F50D0010ECE
:10108000006E10EC04F0010E0501006F48D006015F
:101090000151400DF3CF01F0026A000E0224036EED
:1010A000046A050E0422000E0124056E066A070E6E
:1010B000062205C0E9FF06C0EAFFEFCF05F003C036
:1010C000E9FF04C0EAFF05C0EFFF022A012A400E33
:1010D000025CE3E3400E006E22D00F0E0601011504
:1010E000016EC00E0110B56E006A19D001C666F01F
:1010F000006A15D001C667F0006A11D001C668F019
:101100001DEC0AF0006A0BD001C669F01CEC0BF074
:1011100006D001C66AF010EC0BF001D0006A005056
:101120000CE0005004010D6F04010CAD03D0880EDB
:101130000C6F03D0C80E04010C6F400E0401096F40
:10114000040108AD03D0880E086F03D0C80E040157
:10115000086FE4CF06F0E4CF05F0E4CF04F0E4CF6D
:1011600003F0E4CF02F0E4CF01F0E4CF00F012008E
:1011700000C0E5FF01C0E5FF02C0E5FF000E04016D
:101180001A5D02E1080E195D04E204011951006EB6
:1011900002D0080E006E00500401056F00C001F07F
:1011A000026A01500401195F02501A5B04EE1FF03D
:1011B00004011B51010A17E11CC4F6FF1DC4F7FF0F
:1011C0001EC4F8FF00C001F0015005E00900F5CF92
:1011D000EEFF0106F9D7F65004011C6FF7501D6FA2
:1011E000F8501E6F0FD01CC4D9FF1DC4DAFF005089
:1011F00004E0DECFEEFF0006FAD7D95004011C6FE1
:10120000DA501D6FE4CF02F0E4CF01F0E4CF00F03C
:10121000120000C0E5FF01C0E5FF6C5020E100C4F2
:1012200000F03C0E0014016E0150340A07E103EC9B
:1012300007F0C80E0401046F6D9836D004011051F8
:10124000020A0AE100AC04D0880E0401006F2CD021
:10125000C80E0401006F28D0B8EC0AF025D06C50FD
:10126000040A22E104012851040A0CE127C46EFF9C
:101270006E5005E0050E0401286F808A03D0030E2E
:101280000401286F04011051010A0CE1B8EC08F0C8
:10129000040104AD03D0880E046F06D0C80E04010B
:1012A000046F02D0B8EC0AF0E4CF01F0E4CF00F014
:1012B00012001201000200000008D804020002011E
:1012C000010203010902200001010080FA09040063
:1012D0000002000000000705010240000007058130
:1012E00002400000040309042C0349006C006C0058
:1012F0006500670061006C002000530079007300F6
:10130000740065006D007300200043006F007200E0
:1013100070002E00220349005300430020004F00BC
:101320007300630069006C006C006F007300630061
:101330006F00700065000C03560031002E00300075
:10134000330000C0E5FF01C0E5FF040111AF28D064
:10135000010E0401106F17C400F018C401F004015D
:101360001A51015C02E11951005C04E200C019F459
:1013700001C01AF4B8EC08F01F0E0401066F040E49
:10138000076F080E0401016F110E006E040E016E4E
:101390000050026F0150036F800E0401006F0FD0E8
:1013A000020E0401106F080E0401016F1F0E026F80
:1013B000040E036FC80E0401006F0401056BE4CF37
:1013C00001F0E4CF00F0120000C0E5FF695068149E
:1013D000006E00A405D06D9269946894689869883D
:1013E00000A012D068A602D06896FCD7686A7B0E6F
:1013F000696E6E6A160E706EB8EC0AF06D98040194
:10140000296B030E0401286F00A803D06984689833
:101410006D8200AA06D070A003D0B8EC0AF07090DC
:10142000689A030E0401285D05E300A603D009ECC9
:1014300009F06896E4CF00F0120000016851010A3B
:1014400019E000016851020A18E000016851030A1E
:1014500017E000016851040A16E000016851050A0E
:1014600015E000016851060A14E000016851090AFC
:1014700013E014D02E0E806E11D0240E806E0ED08C
:10148000260E806E0BD02C0E806E08D0270E806E3C
:1014900005D0250E806E02D02F0E806E1200D8CFA0
:1014A000E5FFE0CFE5FFE56EF3CFE5FFF4CFE5FF25
:1014B000E9CFE5FFEACFE5FFFACFE5FFFBCFE5FF98
:1014C000E4CFFBFFE4CFFAFFE4CFEAFFE4CFE9FF8C
:1014D000E4CFF4FFE4CFF3FFE450E4CFE0FFE4CF48
:1014E000D8FF1000D8CFE5FFE0CFE5FFE56EF3CFE2
:1014F000E5FFF4CFE5FFE9CFE5FFEACFE5FFFACF5F
:10150000E5FFFBCFE5FFE4CFFBFFE4CFFAFFE4CF3D
:10151000EAFFE4CFE9FFE4CFF4FFE4CFF3FFE450C8
:10152000E4CFE0FFE4CFD8FF1000200E806E040E61
:10153000926E070EB46EE70EB56E0F0EC16E816A25
:10154000FF0E936EFC0E826E380E946E1F0EBD6EF3
:10155000BE6ACB6ACC6A040ECA6E010E0001666FC9
:1015600000EC0BF0E4EC09F0F7EC07F0FBD712000D
:1015700000C0E5FF01C0E5FF0401106B080E040187
:10158000016F110E006E040E016E0050026F0150CB
:10159000036F880E0401006F046BE4CF01F0E4CF09
:1015A00000F0120000C0E5FF01C0E5FF080E0401D5
:1015B000016F110E006E040E016E0050026F01509B
:1015C000036F840E0401006F840E046FE4CF01F0FA
:1015D000E4CF00F012001E0E716E400E0401096F80
:1015E000000E0A6F060E0B6F880E0401086F000EC6
:1015F00004010E6F050E0F6F400E04010C6F1200F8
:101600000401006B046B140E6F6E080E6D6E6DBAE4
:10161000FED7686A110E696E020E0401286F12006F
:1016200000016A5105E000016A51010A03E003D09C
:10163000829201D0828212000001695105E000010E
:101640006951010A03E003D0829001D08280120028
:020000040030CA
:0E000000E03EF8FEFF7D9AFFFFFFFFBFFFFF0F
:02000500018078
:01000B00A054
:00000001FF
